{
  "abi": [
    {
      "type": "constructor",
      "inputs": [
        {
          "name": "initialOwner",
          "type": "address",
          "internalType": "address"
        },
        {
          "name": "_registry",
          "type": "address",
          "internalType": "address"
        }
      ],
      "stateMutability": "nonpayable"
    },
    {
      "type": "function",
      "name": "approve",
      "inputs": [
        {
          "name": "to",
          "type": "address",
          "internalType": "address"
        },
        {
          "name": "tokenId",
          "type": "uint256",
          "internalType": "uint256"
        }
      ],
      "outputs": [],
      "stateMutability": "nonpayable"
    },
    {
      "type": "function",
      "name": "balanceOf",
      "inputs": [
        {
          "name": "owner",
          "type": "address",
          "internalType": "address"
        }
      ],
      "outputs": [
        {
          "name": "",
          "type": "uint256",
          "internalType": "uint256"
        }
      ],
      "stateMutability": "view"
    },
    {
      "type": "function",
      "name": "certificateHash",
      "inputs": [
        {
          "name": "",
          "type": "uint256",
          "internalType": "uint256"
        }
      ],
      "outputs": [
        {
          "name": "",
          "type": "string",
          "internalType": "string"
        }
      ],
      "stateMutability": "view"
    },
    {
      "type": "function",
      "name": "getApproved",
      "inputs": [
        {
          "name": "tokenId",
          "type": "uint256",
          "internalType": "uint256"
        }
      ],
      "outputs": [
        {
          "name": "",
          "type": "address",
          "internalType": "address"
        }
      ],
      "stateMutability": "view"
    },
    {
      "type": "function",
      "name": "isApprovedForAll",
      "inputs": [
        {
          "name": "owner",
          "type": "address",
          "internalType": "address"
        },
        {
          "name": "operator",
          "type": "address",
          "internalType": "address"
        }
      ],
      "outputs": [
        {
          "name": "",
          "type": "bool",
          "internalType": "bool"
        }
      ],
      "stateMutability": "view"
    },
    {
      "type": "function",
      "name": "mintCertificateNFT",
      "inputs": [
        {
          "name": "student",
          "type": "address",
          "internalType": "address"
        },
        {
          "name": "certHash",
          "type": "string",
          "internalType": "string"
        }
      ],
      "outputs": [
        {
          "name": "",
          "type": "uint256",
          "internalType": "uint256"
        }
      ],
      "stateMutability": "nonpayable"
    },
    {
      "type": "function",
      "name": "minted",
      "inputs": [
        {
          "name": "",
          "type": "string",
          "internalType": "string"
        }
      ],
      "outputs": [
        {
          "name": "",
          "type": "bool",
          "internalType": "bool"
        }
      ],
      "stateMutability": "view"
    },
    {
      "type": "function",
      "name": "name",
      "inputs": [],
      "outputs": [
        {
          "name": "",
          "type": "string",
          "internalType": "string"
        }
      ],
      "stateMutability": "view"
    },
    {
      "type": "function",
      "name": "owner",
      "inputs": [],
      "outputs": [
        {
          "name": "",
          "type": "address",
          "internalType": "address"
        }
      ],
      "stateMutability": "view"
    },
    {
      "type": "function",
      "name": "ownerOf",
      "inputs": [
        {
          "name": "tokenId",
          "type": "uint256",
          "internalType": "uint256"
        }
      ],
      "outputs": [
        {
          "name": "",
          "type": "address",
          "internalType": "address"
        }
      ],
      "stateMutability": "view"
    },
    {
      "type": "function",
      "name": "registryAddress",
      "inputs": [],
      "outputs": [
        {
          "name": "",
          "type": "address",
          "internalType": "address"
        }
      ],
      "stateMutability": "view"
    },
    {
      "type": "function",
      "name": "renounceOwnership",
      "inputs": [],
      "outputs": [],
      "stateMutability": "nonpayable"
    },
    {
      "type": "function",
      "name": "safeTransferFrom",
      "inputs": [
        {
          "name": "from",
          "type": "address",
          "internalType": "address"
        },
        {
          "name": "to",
          "type": "address",
          "internalType": "address"
        },
        {
          "name": "tokenId",
          "type": "uint256",
          "internalType": "uint256"
        }
      ],
      "outputs": [],
      "stateMutability": "nonpayable"
    },
    {
      "type": "function",
      "name": "safeTransferFrom",
      "inputs": [
        {
          "name": "from",
          "type": "address",
          "internalType": "address"
        },
        {
          "name": "to",
          "type": "address",
          "internalType": "address"
        },
        {
          "name": "tokenId",
          "type": "uint256",
          "internalType": "uint256"
        },
        {
          "name": "data",
          "type": "bytes",
          "internalType": "bytes"
        }
      ],
      "outputs": [],
      "stateMutability": "nonpayable"
    },
    {
      "type": "function",
      "name": "setApprovalForAll",
      "inputs": [
        {
          "name": "operator",
          "type": "address",
          "internalType": "address"
        },
        {
          "name": "approved",
          "type": "bool",
          "internalType": "bool"
        }
      ],
      "outputs": [],
      "stateMutability": "nonpayable"
    },
    {
      "type": "function",
      "name": "supportsInterface",
      "inputs": [
        {
          "name": "interfaceId",
          "type": "bytes4",
          "internalType": "bytes4"
        }
      ],
      "outputs": [
        {
          "name": "",
          "type": "bool",
          "internalType": "bool"
        }
      ],
      "stateMutability": "view"
    },
    {
      "type": "function",
      "name": "symbol",
      "inputs": [],
      "outputs": [
        {
          "name": "",
          "type": "string",
          "internalType": "string"
        }
      ],
      "stateMutability": "view"
    },
    {
      "type": "function",
      "name": "tokenURI",
      "inputs": [
        {
          "name": "tokenId",
          "type": "uint256",
          "internalType": "uint256"
        }
      ],
      "outputs": [
        {
          "name": "",
          "type": "string",
          "internalType": "string"
        }
      ],
      "stateMutability": "view"
    },
    {
      "type": "function",
      "name": "transferFrom",
      "inputs": [
        {
          "name": "from",
          "type": "address",
          "internalType": "address"
        },
        {
          "name": "to",
          "type": "address",
          "internalType": "address"
        },
        {
          "name": "tokenId",
          "type": "uint256",
          "internalType": "uint256"
        }
      ],
      "outputs": [],
      "stateMutability": "nonpayable"
    },
    {
      "type": "function",
      "name": "transferOwnership",
      "inputs": [
        {
          "name": "newOwner",
          "type": "address",
          "internalType": "address"
        }
      ],
      "outputs": [],
      "stateMutability": "nonpayable"
    },
    {
      "type": "event",
      "name": "Approval",
      "inputs": [
        {
          "name": "owner",
          "type": "address",
          "indexed": true,
          "internalType": "address"
        },
        {
          "name": "approved",
          "type": "address",
          "indexed": true,
          "internalType": "address"
        },
        {
          "name": "tokenId",
          "type": "uint256",
          "indexed": true,
          "internalType": "uint256"
        }
      ],
      "anonymous": false
    },
    {
      "type": "event",
      "name": "ApprovalForAll",
      "inputs": [
        {
          "name": "owner",
          "type": "address",
          "indexed": true,
          "internalType": "address"
        },
        {
          "name": "operator",
          "type": "address",
          "indexed": true,
          "internalType": "address"
        },
        {
          "name": "approved",
          "type": "bool",
          "indexed": false,
          "internalType": "bool"
        }
      ],
      "anonymous": false
    },
    {
      "type": "event",
      "name": "OwnershipTransferred",
      "inputs": [
        {
          "name": "previousOwner",
          "type": "address",
          "indexed": true,
          "internalType": "address"
        },
        {
          "name": "newOwner",
          "type": "address",
          "indexed": true,
          "internalType": "address"
        }
      ],
      "anonymous": false
    },
    {
      "type": "event",
      "name": "Transfer",
      "inputs": [
        {
          "name": "from",
          "type": "address",
          "indexed": true,
          "internalType": "address"
        },
        {
          "name": "to",
          "type": "address",
          "indexed": true,
          "internalType": "address"
        },
        {
          "name": "tokenId",
          "type": "uint256",
          "indexed": true,
          "internalType": "uint256"
        }
      ],
      "anonymous": false
    },
    {
      "type": "error",
      "name": "ERC721IncorrectOwner",
      "inputs": [
        {
          "name": "sender",
          "type": "address",
          "internalType": "address"
        },
        {
          "name": "tokenId",
          "type": "uint256",
          "internalType": "uint256"
        },
        {
          "name": "owner",
          "type": "address",
          "internalType": "address"
        }
      ]
    },
    {
      "type": "error",
      "name": "ERC721InsufficientApproval",
      "inputs": [
        {
          "name": "operator",
          "type": "address",
          "internalType": "address"
        },
        {
          "name": "tokenId",
          "type": "uint256",
          "internalType": "uint256"
        }
      ]
    },
    {
      "type": "error",
      "name": "ERC721InvalidApprover",
      "inputs": [
        {
          "name": "approver",
          "type": "address",
          "internalType": "address"
        }
      ]
    },
    {
      "type": "error",
      "name": "ERC721InvalidOperator",
      "inputs": [
        {
          "name": "operator",
          "type": "address",
          "internalType": "address"
        }
      ]
    },
    {
      "type": "error",
      "name": "ERC721InvalidOwner",
      "inputs": [
        {
          "name": "owner",
          "type": "address",
          "internalType": "address"
        }
      ]
    },
    {
      "type": "error",
      "name": "ERC721InvalidReceiver",
      "inputs": [
        {
          "name": "receiver",
          "type": "address",
          "internalType": "address"
        }
      ]
    },
    {
      "type": "error",
      "name": "ERC721InvalidSender",
      "inputs": [
        {
          "name": "sender",
          "type": "address",
          "internalType": "address"
        }
      ]
    },
    {
      "type": "error",
      "name": "ERC721NonexistentToken",
      "inputs": [
        {
          "name": "tokenId",
          "type": "uint256",
          "internalType": "uint256"
        }
      ]
    },
    {
      "type": "error",
      "name": "OwnableInvalidOwner",
      "inputs": [
        {
          "name": "owner",
          "type": "address",
          "internalType": "address"
        }
      ]
    },
    {
      "type": "error",
      "name": "OwnableUnauthorizedAccount",
      "inputs": [
        {
          "name": "account",
          "type": "address",
          "internalType": "address"
        }
      ]
    }
  ],
  "bytecode": {
    "object": "0x608060405234801561000f575f5ffd5b5060405161300f38038061300f833981810160405281019061003191906102a7565b816040518060400160405280601181526020017f43657274696669636174652042616467650000000000000000000000000000008152506040518060400160405280600681526020017f4342414447450000000000000000000000000000000000000000000000000000815250815f90816100ac9190610522565b5080600190816100bc9190610522565b5050505f73ffffffffffffffffffffffffffffffffffffffff168173ffffffffffffffffffffffffffffffffffffffff160361012f575f6040517f1e4fbdf70000000000000000000000000000000000000000000000000000000081526004016101269190610600565b60405180910390fd5b61013e8161018660201b60201c565b508060085f6101000a81548173ffffffffffffffffffffffffffffffffffffffff021916908373ffffffffffffffffffffffffffffffffffffffff1602179055505050610619565b5f60065f9054906101000a900473ffffffffffffffffffffffffffffffffffffffff1690508160065f6101000a81548173ffffffffffffffffffffffffffffffffffffffff021916908373ffffffffffffffffffffffffffffffffffffffff1602179055508173ffffffffffffffffffffffffffffffffffffffff168173ffffffffffffffffffffffffffffffffffffffff167f8be0079c531659141344cd1fd0a4f28419497f9722a3daafe3b4186f6b6457e060405160405180910390a35050565b5f5ffd5b5f73ffffffffffffffffffffffffffffffffffffffff82169050919050565b5f6102768261024d565b9050919050565b6102868161026c565b8114610290575f5ffd5b50565b5f815190506102a18161027d565b92915050565b5f5f604083850312156102bd576102bc610249565b5b5f6102ca85828601610293565b92505060206102db85828601610293565b9150509250929050565b5f81519050919050565b7f4e487b71000000000000000000000000000000000000000000000000000000005f52604160045260245ffd5b7f4e487b71000000000000000000000000000000000000000000000000000000005f52602260045260245ffd5b5f600282049050600182168061036057607f821691505b6020821081036103735761037261031c565b5b50919050565b5f819050815f5260205f209050919050565b5f6020601f8301049050919050565b5f82821b905092915050565b5f600883026103d57fffffffffffffffffffffffffffffffffffffffffffffffffffffffffffffffff8261039a565b6103df868361039a565b95508019841693508086168417925050509392505050565b5f819050919050565b5f819050919050565b5f61042361041e610419846103f7565b610400565b6103f7565b9050919050565b5f819050919050565b61043c83610409565b6104506104488261042a565b8484546103a6565b825550505050565b5f5f905090565b610467610458565b610472818484610433565b505050565b5b818110156104955761048a5f8261045f565b600181019050610478565b5050565b601f8211156104da576104ab81610379565b6104b48461038b565b810160208510156104c3578190505b6104d76104cf8561038b565b830182610477565b50505b505050565b5f82821c905092915050565b5f6104fa5f19846008026104df565b1980831691505092915050565b5f61051283836104eb565b9150826002028217905092915050565b61052b826102e5565b67ffffffffffffffff811115610544576105436102ef565b5b61054e8254610349565b610559828285610499565b5f60209050601f83116001811461058a575f8415610578578287015190505b6105828582610507565b8655506105e9565b601f19841661059886610379565b5f5b828110156105bf5784890151825560018201915060208501945060208101905061059a565b868310156105dc57848901516105d8601f8916826104eb565b8355505b6001600288020188555050505b505050505050565b6105fa8161026c565b82525050565b5f6020820190506106135f8301846105f1565b92915050565b6129e9806106265f395ff3fe608060405234801561000f575f5ffd5b506004361061012a575f3560e01c8063715018a6116100ab578063c87b56dd1161006f578063c87b56dd1461033e578063d8eac6c71461036e578063e985e9c51461039e578063ed9aab51146103ce578063f2fde38b146103ec5761012a565b8063715018a6146102c05780638da5cb5b146102ca57806395d89b41146102e8578063a22cb46514610306578063b88d4fde146103225761012a565b806323b872dd116100f257806323b872dd146101f857806342842e0e146102145780636352211e146102305780636a247daa1461026057806370a08231146102905761012a565b806301ffc9a71461012e57806306fdde031461015e578063081812fc1461017c578063095ea7b3146101ac578063191d832a146101c8575b5f5ffd5b61014860048036038101906101439190611cbf565b610408565b6040516101559190611d04565b60405180910390f35b6101666104e9565b6040516101739190611d8d565b60405180910390f35b61019660048036038101906101919190611de0565b610578565b6040516101a39190611e4a565b60405180910390f35b6101c660048036038101906101c19190611e8d565b610593565b005b6101e260048036038101906101dd9190611ff7565b6105a9565b6040516101ef9190612060565b60405180910390f35b610212600480360381019061020d9190612079565b610777565b005b61022e60048036038101906102299190612079565b610876565b005b61024a60048036038101906102459190611de0565b610895565b6040516102579190611e4a565b60405180910390f35b61027a600480360381019061027591906120c9565b6108a6565b6040516102879190611d04565b60405180910390f35b6102aa60048036038101906102a59190612110565b6108db565b6040516102b79190612060565b60405180910390f35b6102c8610991565b005b6102d26109a4565b6040516102df9190611e4a565b60405180910390f35b6102f06109cc565b6040516102fd9190611d8d565b60405180910390f35b610320600480360381019061031b9190612165565b610a5c565b005b61033c60048036038101906103379190612241565b610a72565b005b61035860048036038101906103539190611de0565b610a97565b6040516103659190611d8d565b60405180910390f35b61038860048036038101906103839190611de0565b610afd565b6040516103959190611d8d565b60405180910390f35b6103b860048036038101906103b391906122c1565b610b98565b6040516103c59190611d04565b60405180910390f35b6103d6610c26565b6040516103e39190611e4a565b60405180910390f35b61040660048036038101906104019190612110565b610c4b565b005b5f7f80ac58cd000000000000000000000000000000000000000000000000000000007bffffffffffffffffffffffffffffffffffffffffffffffffffffffff1916827bffffffffffffffffffffffffffffffffffffffffffffffffffffffff191614806104d257507f5b5e139f000000000000000000000000000000000000000000000000000000007bffffffffffffffffffffffffffffffffffffffffffffffffffffffff1916827bffffffffffffffffffffffffffffffffffffffffffffffffffffffff1916145b806104e257506104e182610ccf565b5b9050919050565b60605f80546104f79061232c565b80601f01602080910402602001604051908101604052809291908181526020018280546105239061232c565b801561056e5780601f106105455761010080835404028352916020019161056e565b820191905f5260205f20905b81548152906001019060200180831161055157829003601f168201915b5050505050905090565b5f61058282610d38565b5061058c82610dbe565b9050919050565b6105a582826105a0610df7565b610dfe565b5050565b5f6105b2610e10565b600a826040516105c29190612396565b90815260200160405180910390205f9054906101000a900460ff161561061d576040517f08c379a0000000000000000000000000000000000000000000000000000000008152600401610614906123f6565b60405180910390fd5b60085f9054906101000a900473ffffffffffffffffffffffffffffffffffffffff1673ffffffffffffffffffffffffffffffffffffffff16638b23d875836040518263ffffffff1660e01b81526004016106779190611d8d565b602060405180830381865afa158015610692573d5f5f3e3d5ffd5b505050506040513d601f19601f820116820180604052508101906106b69190612428565b6106f5576040517f08c379a00000000000000000000000000000000000000000000000000000000081526004016106ec906124c3565b60405180910390fd5b5f60075f8154809291906107089061250e565b9190505590506107188482610e97565b8260095f8381526020019081526020015f20908161073691906126f5565b506001600a846040516107499190612396565b90815260200160405180910390205f6101000a81548160ff0219169083151502179055508091505092915050565b5f73ffffffffffffffffffffffffffffffffffffffff168273ffffffffffffffffffffffffffffffffffffffff16036107e7575f6040517f64a0ae920000000000000000000000000000000000000000000000000000000081526004016107de9190611e4a565b60405180910390fd5b5f6107fa83836107f5610df7565b610eb4565b90508373ffffffffffffffffffffffffffffffffffffffff168173ffffffffffffffffffffffffffffffffffffffff1614610870578382826040517f64283d7b000000000000000000000000000000000000000000000000000000008152600401610867939291906127c4565b60405180910390fd5b50505050565b61089083838360405180602001604052805f815250610a72565b505050565b5f61089f82610d38565b9050919050565b600a818051602081018201805184825260208301602085012081835280955050505050505f915054906101000a900460ff1681565b5f5f73ffffffffffffffffffffffffffffffffffffffff168273ffffffffffffffffffffffffffffffffffffffff160361094c575f6040517f89c62b640000000000000000000000000000000000000000000000000000000081526004016109439190611e4a565b60405180910390fd5b60035f8373ffffffffffffffffffffffffffffffffffffffff1673ffffffffffffffffffffffffffffffffffffffff1681526020019081526020015f20549050919050565b610999610e10565b6109a25f610f44565b565b5f60065f9054906101000a900473ffffffffffffffffffffffffffffffffffffffff16905090565b6060600180546109db9061232c565b80601f0160208091040260200160405190810160405280929190818152602001828054610a079061232c565b8015610a525780601f10610a2957610100808354040283529160200191610a52565b820191905f5260205f20905b815481529060010190602001808311610a3557829003601f168201915b5050505050905090565b610a6e610a67610df7565b8383611007565b5050565b610a7d848484610777565b610a91610a88610df7565b858585856111e0565b50505050565b6060610aa282610d38565b505f610aac61138c565b90505f815111610aca5760405180602001604052805f815250610af5565b80610ad4846113a2565b604051602001610ae59291906127f9565b6040516020818303038152906040525b915050919050565b6009602052805f5260405f205f915090508054610b199061232c565b80601f0160208091040260200160405190810160405280929190818152602001828054610b459061232c565b8015610b905780601f10610b6757610100808354040283529160200191610b90565b820191905f5260205f20905b815481529060010190602001808311610b7357829003601f168201915b505050505081565b5f60055f8473ffffffffffffffffffffffffffffffffffffffff1673ffffffffffffffffffffffffffffffffffffffff1681526020019081526020015f205f8373ffffffffffffffffffffffffffffffffffffffff1673ffffffffffffffffffffffffffffffffffffffff1681526020019081526020015f205f9054906101000a900460ff16905092915050565b60085f9054906101000a900473ffffffffffffffffffffffffffffffffffffffff1681565b610c53610e10565b5f73ffffffffffffffffffffffffffffffffffffffff168173ffffffffffffffffffffffffffffffffffffffff1603610cc3575f6040517f1e4fbdf7000000000000000000000000000000000000000000000000000000008152600401610cba9190611e4a565b60405180910390fd5b610ccc81610f44565b50565b5f7f01ffc9a7000000000000000000000000000000000000000000000000000000007bffffffffffffffffffffffffffffffffffffffffffffffffffffffff1916827bffffffffffffffffffffffffffffffffffffffffffffffffffffffff1916149050919050565b5f5f610d438361146c565b90505f73ffffffffffffffffffffffffffffffffffffffff168173ffffffffffffffffffffffffffffffffffffffff1603610db557826040517f7e273289000000000000000000000000000000000000000000000000000000008152600401610dac9190612060565b60405180910390fd5b80915050919050565b5f60045f8381526020019081526020015f205f9054906101000a900473ffffffffffffffffffffffffffffffffffffffff169050919050565b5f33905090565b610e0b83838360016114a5565b505050565b610e18610df7565b73ffffffffffffffffffffffffffffffffffffffff16610e366109a4565b73ffffffffffffffffffffffffffffffffffffffff1614610e9557610e59610df7565b6040517f118cdaa7000000000000000000000000000000000000000000000000000000008152600401610e8c9190611e4a565b60405180910390fd5b565b610eb0828260405180602001604052805f815250611664565b5050565b5f5f610ebf8461146c565b90505f73ffffffffffffffffffffffffffffffffffffffff168173ffffffffffffffffffffffffffffffffffffffff1614610f2f576040517f08c379a0000000000000000000000000000000000000000000000000000000008152600401610f2690612866565b60405180910390fd5b610f3a858585611687565b9150509392505050565b5f60065f9054906101000a900473ffffffffffffffffffffffffffffffffffffffff1690508160065f6101000a81548173ffffffffffffffffffffffffffffffffffffffff021916908373ffffffffffffffffffffffffffffffffffffffff1602179055508173ffffffffffffffffffffffffffffffffffffffff168173ffffffffffffffffffffffffffffffffffffffff167f8be0079c531659141344cd1fd0a4f28419497f9722a3daafe3b4186f6b6457e060405160405180910390a35050565b5f73ffffffffffffffffffffffffffffffffffffffff168373ffffffffffffffffffffffffffffffffffffffff1603611077575f6040517fa9fbf51f00000000000000000000000000000000000000000000000000000000815260040161106e9190611e4a565b60405180910390fd5b5f73ffffffffffffffffffffffffffffffffffffffff168273ffffffffffffffffffffffffffffffffffffffff16036110e757816040517f5b08ba180000000000000000000000000000000000000000000000000000000081526004016110de9190611e4a565b60405180910390fd5b8060055f8573ffffffffffffffffffffffffffffffffffffffff1673ffffffffffffffffffffffffffffffffffffffff1681526020019081526020015f205f8473ffffffffffffffffffffffffffffffffffffffff1673ffffffffffffffffffffffffffffffffffffffff1681526020019081526020015f205f6101000a81548160ff0219169083151502179055508173ffffffffffffffffffffffffffffffffffffffff168373ffffffffffffffffffffffffffffffffffffffff167f17307eab39ab6107e8899845ad3d59bd9653f200f220920489ca2b5937696c31836040516111d39190611d04565b60405180910390a3505050565b5f8373ffffffffffffffffffffffffffffffffffffffff163b1115611385578273ffffffffffffffffffffffffffffffffffffffff1663150b7a02868685856040518563ffffffff1660e01b815260040161123e94939291906128d6565b6020604051808303815f875af192505050801561127957506040513d601f19601f820116820180604052508101906112769190612934565b60015b6112fa573d805f81146112a7576040519150601f19603f3d011682016040523d82523d5f602084013e6112ac565b606091505b505f8151036112f257836040517f64a0ae920000000000000000000000000000000000000000000000000000000081526004016112e99190611e4a565b60405180910390fd5b805160208201fd5b63150b7a0260e01b7bffffffffffffffffffffffffffffffffffffffffffffffffffffffff1916817bffffffffffffffffffffffffffffffffffffffffffffffffffffffff19161461138357836040517f64a0ae9200000000000000000000000000000000000000000000000000000000815260040161137a9190611e4a565b60405180910390fd5b505b5050505050565b606060405180602001604052805f815250905090565b60605f60016113b084611892565b0190505f8167ffffffffffffffff8111156113ce576113cd611ed3565b5b6040519080825280601f01601f1916602001820160405280156114005781602001600182028036833780820191505090505b5090505f82602083010190505b600115611461578080600190039150507f3031323334353637383961626364656600000000000000000000000000000000600a86061a8153600a85816114565761145561295f565b5b0494505f850361140d575b819350505050919050565b5f60025f8381526020019081526020015f205f9054906101000a900473ffffffffffffffffffffffffffffffffffffffff169050919050565b80806114dd57505f73ffffffffffffffffffffffffffffffffffffffff168273ffffffffffffffffffffffffffffffffffffffff1614155b1561160f575f6114ec84610d38565b90505f73ffffffffffffffffffffffffffffffffffffffff168373ffffffffffffffffffffffffffffffffffffffff161415801561155657508273ffffffffffffffffffffffffffffffffffffffff168173ffffffffffffffffffffffffffffffffffffffff1614155b801561156957506115678184610b98565b155b156115ab57826040517fa9fbf51f0000000000000000000000000000000000000000000000000000000081526004016115a29190611e4a565b60405180910390fd5b811561160d57838573ffffffffffffffffffffffffffffffffffffffff168273ffffffffffffffffffffffffffffffffffffffff167f8c5be1e5ebec7d5bd14f71427d1e84f3dd0314c0f7b2291e5b200ac8c7c3b92560405160405180910390a45b505b8360045f8581526020019081526020015f205f6101000a81548173ffffffffffffffffffffffffffffffffffffffff021916908373ffffffffffffffffffffffffffffffffffffffff16021790555050505050565b61166e83836119e3565b611682611679610df7565b5f8585856111e0565b505050565b5f5f6116928461146c565b90505f73ffffffffffffffffffffffffffffffffffffffff168373ffffffffffffffffffffffffffffffffffffffff16146116d3576116d2818486611ad6565b5b5f73ffffffffffffffffffffffffffffffffffffffff168173ffffffffffffffffffffffffffffffffffffffff161461175e576117125f855f5f6114a5565b600160035f8373ffffffffffffffffffffffffffffffffffffffff1673ffffffffffffffffffffffffffffffffffffffff1681526020019081526020015f205f82825403925050819055505b5f73ffffffffffffffffffffffffffffffffffffffff168573ffffffffffffffffffffffffffffffffffffffff16146117dd57600160035f8773ffffffffffffffffffffffffffffffffffffffff1673ffffffffffffffffffffffffffffffffffffffff1681526020019081526020015f205f82825401925050819055505b8460025f8681526020019081526020015f205f6101000a81548173ffffffffffffffffffffffffffffffffffffffff021916908373ffffffffffffffffffffffffffffffffffffffff160217905550838573ffffffffffffffffffffffffffffffffffffffff168273ffffffffffffffffffffffffffffffffffffffff167fddf252ad1be2c89b69c2b068fc378daa952ba7f163c4a11628f55a4df523b3ef60405160405180910390a4809150509392505050565b5f5f5f90507a184f03e93ff9f4daa797ed6e38ed64bf6a1f01000000000000000083106118ee577a184f03e93ff9f4daa797ed6e38ed64bf6a1f01000000000000000083816118e4576118e361295f565b5b0492506040810190505b6d04ee2d6d415b85acef8100000000831061192b576d04ee2d6d415b85acef810000000083816119215761192061295f565b5b0492506020810190505b662386f26fc10000831061195a57662386f26fc1000083816119505761194f61295f565b5b0492506010810190505b6305f5e1008310611983576305f5e10083816119795761197861295f565b5b0492506008810190505b61271083106119a857612710838161199e5761199d61295f565b5b0492506004810190505b606483106119cb57606483816119c1576119c061295f565b5b0492506002810190505b600a83106119da576001810190505b80915050919050565b5f73ffffffffffffffffffffffffffffffffffffffff168273ffffffffffffffffffffffffffffffffffffffff1603611a53575f6040517f64a0ae92000000000000000000000000000000000000000000000000000000008152600401611a4a9190611e4a565b60405180910390fd5b5f611a5f83835f610eb4565b90505f73ffffffffffffffffffffffffffffffffffffffff168173ffffffffffffffffffffffffffffffffffffffff1614611ad1575f6040517f73c6ac6e000000000000000000000000000000000000000000000000000000008152600401611ac89190611e4a565b60405180910390fd5b505050565b611ae1838383611b99565b611b94575f73ffffffffffffffffffffffffffffffffffffffff168373ffffffffffffffffffffffffffffffffffffffff1603611b5557806040517f7e273289000000000000000000000000000000000000000000000000000000008152600401611b4c9190612060565b60405180910390fd5b81816040517f177e802f000000000000000000000000000000000000000000000000000000008152600401611b8b92919061298c565b60405180910390fd5b505050565b5f5f73ffffffffffffffffffffffffffffffffffffffff168373ffffffffffffffffffffffffffffffffffffffff1614158015611c5057508273ffffffffffffffffffffffffffffffffffffffff168473ffffffffffffffffffffffffffffffffffffffff161480611c115750611c108484610b98565b5b80611c4f57508273ffffffffffffffffffffffffffffffffffffffff16611c3783610dbe565b73ffffffffffffffffffffffffffffffffffffffff16145b5b90509392505050565b5f604051905090565b5f5ffd5b5f5ffd5b5f7fffffffff0000000000000000000000000000000000000000000000000000000082169050919050565b611c9e81611c6a565b8114611ca8575f5ffd5b50565b5f81359050611cb981611c95565b92915050565b5f60208284031215611cd457611cd3611c62565b5b5f611ce184828501611cab565b91505092915050565b5f8115159050919050565b611cfe81611cea565b82525050565b5f602082019050611d175f830184611cf5565b92915050565b5f81519050919050565b5f82825260208201905092915050565b8281835e5f83830152505050565b5f601f19601f8301169050919050565b5f611d5f82611d1d565b611d698185611d27565b9350611d79818560208601611d37565b611d8281611d45565b840191505092915050565b5f6020820190508181035f830152611da58184611d55565b905092915050565b5f819050919050565b611dbf81611dad565b8114611dc9575f5ffd5b50565b5f81359050611dda81611db6565b92915050565b5f60208284031215611df557611df4611c62565b5b5f611e0284828501611dcc565b91505092915050565b5f73ffffffffffffffffffffffffffffffffffffffff82169050919050565b5f611e3482611e0b565b9050919050565b611e4481611e2a565b82525050565b5f602082019050611e5d5f830184611e3b565b92915050565b611e6c81611e2a565b8114611e76575f5ffd5b50565b5f81359050611e8781611e63565b92915050565b5f5f60408385031215611ea357611ea2611c62565b5b5f611eb085828601611e79565b9250506020611ec185828601611dcc565b9150509250929050565b5f5ffd5b5f5ffd5b7f4e487b71000000000000000000000000000000000000000000000000000000005f52604160045260245ffd5b611f0982611d45565b810181811067ffffffffffffffff82111715611f2857611f27611ed3565b5b80604052505050565b5f611f3a611c59565b9050611f468282611f00565b919050565b5f67ffffffffffffffff821115611f6557611f64611ed3565b5b611f6e82611d45565b9050602081019050919050565b828183375f83830152505050565b5f611f9b611f9684611f4b565b611f31565b905082815260208101848484011115611fb757611fb6611ecf565b5b611fc2848285611f7b565b509392505050565b5f82601f830112611fde57611fdd611ecb565b5b8135611fee848260208601611f89565b91505092915050565b5f5f6040838503121561200d5761200c611c62565b5b5f61201a85828601611e79565b925050602083013567ffffffffffffffff81111561203b5761203a611c66565b5b61204785828601611fca565b9150509250929050565b61205a81611dad565b82525050565b5f6020820190506120735f830184612051565b92915050565b5f5f5f606084860312156120905761208f611c62565b5b5f61209d86828701611e79565b93505060206120ae86828701611e79565b92505060406120bf86828701611dcc565b9150509250925092565b5f602082840312156120de576120dd611c62565b5b5f82013567ffffffffffffffff8111156120fb576120fa611c66565b5b61210784828501611fca565b91505092915050565b5f6020828403121561212557612124611c62565b5b5f61213284828501611e79565b91505092915050565b61214481611cea565b811461214e575f5ffd5b50565b5f8135905061215f8161213b565b92915050565b5f5f6040838503121561217b5761217a611c62565b5b5f61218885828601611e79565b925050602061219985828601612151565b9150509250929050565b5f67ffffffffffffffff8211156121bd576121bc611ed3565b5b6121c682611d45565b9050602081019050919050565b5f6121e56121e0846121a3565b611f31565b90508281526020810184848401111561220157612200611ecf565b5b61220c848285611f7b565b509392505050565b5f82601f83011261222857612227611ecb565b5b81356122388482602086016121d3565b91505092915050565b5f5f5f5f6080858703121561225957612258611c62565b5b5f61226687828801611e79565b945050602061227787828801611e79565b935050604061228887828801611dcc565b925050606085013567ffffffffffffffff8111156122a9576122a8611c66565b5b6122b587828801612214565b91505092959194509250565b5f5f604083850312156122d7576122d6611c62565b5b5f6122e485828601611e79565b92505060206122f585828601611e79565b9150509250929050565b7f4e487b71000000000000000000000000000000000000000000000000000000005f52602260045260245ffd5b5f600282049050600182168061234357607f821691505b602082108103612356576123556122ff565b5b50919050565b5f81905092915050565b5f61237082611d1d565b61237a818561235c565b935061238a818560208601611d37565b80840191505092915050565b5f6123a18284612366565b915081905092915050565b7f416c7265616479206d696e7465640000000000000000000000000000000000005f82015250565b5f6123e0600e83611d27565b91506123eb826123ac565b602082019050919050565b5f6020820190508181035f83015261240d816123d4565b9050919050565b5f815190506124228161213b565b92915050565b5f6020828403121561243d5761243c611c62565b5b5f61244a84828501612414565b91505092915050565b7f4365727469666963617465206e6f742076616c696420696e20726567697374725f8201527f7900000000000000000000000000000000000000000000000000000000000000602082015250565b5f6124ad602183611d27565b91506124b882612453565b604082019050919050565b5f6020820190508181035f8301526124da816124a1565b9050919050565b7f4e487b71000000000000000000000000000000000000000000000000000000005f52601160045260245ffd5b5f61251882611dad565b91507fffffffffffffffffffffffffffffffffffffffffffffffffffffffffffffffff820361254a576125496124e1565b5b600182019050919050565b5f819050815f5260205f209050919050565b5f6020601f8301049050919050565b5f82821b905092915050565b5f600883026125b17fffffffffffffffffffffffffffffffffffffffffffffffffffffffffffffffff82612576565b6125bb8683612576565b95508019841693508086168417925050509392505050565b5f819050919050565b5f6125f66125f16125ec84611dad565b6125d3565b611dad565b9050919050565b5f819050919050565b61260f836125dc565b61262361261b826125fd565b848454612582565b825550505050565b5f5f905090565b61263a61262b565b612645818484612606565b505050565b5b818110156126685761265d5f82612632565b60018101905061264b565b5050565b601f8211156126ad5761267e81612555565b61268784612567565b81016020851015612696578190505b6126aa6126a285612567565b83018261264a565b50505b505050565b5f82821c905092915050565b5f6126cd5f19846008026126b2565b1980831691505092915050565b5f6126e583836126be565b9150826002028217905092915050565b6126fe82611d1d565b67ffffffffffffffff81111561271757612716611ed3565b5b612721825461232c565b61272c82828561266c565b5f60209050601f83116001811461275d575f841561274b578287015190505b61275585826126da565b8655506127bc565b601f19841661276b86612555565b5f5b828110156127925784890151825560018201915060208501945060208101905061276d565b868310156127af57848901516127ab601f8916826126be565b8355505b6001600288020188555050505b505050505050565b5f6060820190506127d75f830186611e3b565b6127e46020830185612051565b6127f16040830184611e3b565b949350505050565b5f6128048285612366565b91506128108284612366565b91508190509392505050565b7f536f756c626f756e64204e46543a206e6f6e2d7472616e7366657261626c65005f82015250565b5f612850601f83611d27565b915061285b8261281c565b602082019050919050565b5f6020820190508181035f83015261287d81612844565b9050919050565b5f81519050919050565b5f82825260208201905092915050565b5f6128a882612884565b6128b2818561288e565b93506128c2818560208601611d37565b6128cb81611d45565b840191505092915050565b5f6080820190506128e95f830187611e3b565b6128f66020830186611e3b565b6129036040830185612051565b8181036060830152612915818461289e565b905095945050505050565b5f8151905061292e81611c95565b92915050565b5f6020828403121561294957612948611c62565b5b5f61295684828501612920565b91505092915050565b7f4e487b71000000000000000000000000000000000000000000000000000000005f52601260045260245ffd5b5f60408201905061299f5f830185611e3b565b6129ac6020830184612051565b939250505056fea2646970667358221220d32ed6657095f377d856d388368b4860339fd8d0e39078c7e940ecd21c26f93564736f6c634300081b0033",
    "linkReferences": {}
  },
  "methodIdentifiers": {
    "approve(address,uint256)": "095ea7b3",
    "balanceOf(address)": "70a08231",
    "certificateHash(uint256)": "d8eac6c7",
    "getApproved(uint256)": "081812fc",
    "isApprovedForAll(address,address)": "e985e9c5",
    "mintCertificateNFT(address,string)": "191d832a",
    "minted(string)": "6a247daa",
    "name()": "06fdde03",
    "owner()": "8da5cb5b",
    "ownerOf(uint256)": "6352211e",
    "registryAddress()": "ed9aab51",
    "renounceOwnership()": "715018a6",
    "safeTransferFrom(address,address,uint256)": "42842e0e",
    "safeTransferFrom(address,address,uint256,bytes)": "b88d4fde",
    "setApprovalForAll(address,bool)": "a22cb465",
    "supportsInterface(bytes4)": "01ffc9a7",
    "symbol()": "95d89b41",
    "tokenURI(uint256)": "c87b56dd",
    "transferFrom(address,address,uint256)": "23b872dd",
    "transferOwnership(address)": "f2fde38b"
  },
  "id": 40
}